:10100000809D002009C60000A9BF0000DDC50000CA
:10101000DDC50000DDC50000DDC5000000000000EA
:10102000000000000000000000000000E9C0000017
:10103000DDC500000000000059C00000DDC5000053
:10104000B1C20000716C0000B1C20000B1C200006A
:10105000B1C20000B1C20000B1C20000B1C20000C4
:10106000B1C20000B1C20000B1C20000B1C20000B4
:10107000B1C20000B1C20000B1C20000B1C20000A4
:10108000B1C20000B1C20000B1C20000B1C2000094
:10109000D16C0000B1C20000B1C20000B1C20000BA
:1010A000B1C20000B1C200003D6D0000B1C200003D
:1010B000B1C20000B1C20000B1C20000B1C2000064
:1010C000B1C20000B1C20000B1C20000B1C2000054
:1010D000B1C20000B1C20000B1C20000B1C2000044
:1010E000B1C20000B1C20000B1C20000B1C2000034
:1010F000B1C20000B1C20000B1C20000B1C2000024
:1011000001F0FF01102A2BDB10F0070F08D010F8B8
:10111000013B013A8B422DD010F0070F42B3F6D1BC
:10112000F0B441EA012141EA014122F007047FF0D5
:1011300000070023F0E80256083C85EA010586EA2C
:10114000010685FA47F5A3FA87F586FA47F6A5FA68
:1011500087F68EB9EED1F0BC01F0FF0102F0070274
:1011600032B110F8013B013A83EA010313B1F8D11F
:101170000020704701387047002D06BF3546033800
:10118000073815F0010F07D1013015F4807F02BF39
:10119000013015F4C03F0130F0BC0138704700BF8A
:1011A00081F0004102E000BF83F0004330B54FEA18
:1011B00041044FEA430594EA050F08BF90EA020F85
:1011C0001FBF54EA000C55EA020C7FEA645C7FEA18
:1011D000655C00F0E2804FEA5454D4EB5555B8BF3B
:1011E0006D420CDD2C4480EA020281EA030382EAAC
:1011F000000083EA010180EA020281EA0303362D3E
:1012000088BF30BD11F0004F4FEA01314FF4801C10
:101210004CEA113102D0404261EB410113F0004F22
:101220004FEA03334CEA133302D0524263EB4303D9
:1012300094EA050F00F0A780A4F10104D5F1200E77
:101240000DDB02FA0EFC22FA05F2801841F10001D2
:1012500003FA0EF2801843FA05F359410EE0A5F1A6
:1012600020050EF1200E012A03FA0EFC28BF4CF0D7
:10127000020C43FA05F3C01851EBE37101F000458D
:1012800007D54FF0000EDCF1000C7EEB00006EEB9A
:101290000101B1F5801F1BD3B1F5001F0CD3490824
:1012A0005FEA30004FEA3C0C04F101044FEA44527B
:1012B00012F5800F80F09A80BCF1004F08BF5FEA02
:1012C000500C50F1000041EB045141EA050130BDE2
:1012D0005FEA4C0C404141EB0101013C28BFB1F5F4
:1012E000801FE9D291F0000F04BF01460020B1FA3F
:1012F00081F308BF2033A3F10B03B3F120020CDA12
:101300000C3208DD02F1140CC2F10C0201FA0CF0EF
:1013100021FA02F10CE002F11402D8BFC2F1200C54
:1013200001FA02F120FA0CFCDCBF41EA0C0190400A
:10133000E41AA2BF01EB0451294330BD6FEA040453
:101340001F3C1CDA0C340EDC04F11404C4F120023E
:1013500020FA04F001FA02F340EA030021FA04F350
:1013600045EA030130BDC4F10C04C4F1200220FAA7
:1013700002F001FA04F340EA0300294630BD21FAE5
:1013800004F0294630BD94F0000F83F4801306BFAB
:1013900081F480110134013D4EE77FEA645C18BF9F
:1013A0007FEA655C29D094EA050F08BF90EA020F36
:1013B00005D054EA000C04BF1946104630BD91EA2E
:1013C000030F1EBF0021002030BD5FEA545C05D131
:1013D0004000494128BF41F0004130BD14F5800470
:1013E0003CBF01F5801130BD01F0004545F0FE41E4
:1013F00041F470014FF0000030BD7FEA645C1ABF19
:10140000194610467FEA655C1CBF0B46024650EA4F
:10141000013406BF52EA033591EA030F41F400217B
:1014200030BD00BF90F0000F04BF0021704730B501
:101430004FF4806404F132044FF000054FF00001D6
:1014400050E700BF90F0000F04BF0021704730B597
:101450004FF4806404F1320410F0004548BF40426C
:101460004FF000013EE700BF42004FEAE2014FEAC1
:1014700031014FEA02701FBF12F07F4393F07F4F9C
:1014800081F06051704732F07F4208BF704793F09F
:101490007F4F04BF41F40021704730B54FF46074B2
:1014A00001F0004521F000411CE700BF50EA0102B5
:1014B00008BF704730B54FF000050AE050EA01025E
:1014C00008BF704730B511F0004502D5404261EBCE
:1014D00041014FF4806404F132045FEA915C3FF40F
:1014E000D8AE4FF003025FEADC0C18BF03325FEAAC
:1014F000DC0C18BF033202EBDC02C2F1200300FA5D
:1015000003FC20FA02F001FA03FE40EA0E0021FA81
:1015100002F11444BDE600BF70B54FF0FF0C4CF46F
:10152000E06C1CEA11541DBF1CEA135594EA0C0F21
:1015300095EA0C0F00F0DEF82C4481EA030621EA5C
:101540004C5123EA4C5350EA013518BF52EA033597
:1015500041F4801143F4801338D0A0FB02CE4FF049
:101560000005E1FB02E506F00042E0FB03E54FF079
:101570000006E1FB03569CF0000F18BF4EF0010E71
:10158000A4F1FF04B6F5007F64F5407404D25FEA6D
:101590004E0E6D4146EB060642EAC62141EA555120
:1015A0004FEAC52040EA5E504FEACE2EB4F1FD0C62
:1015B00088BFBCF5E06F1ED8BEF1004F08BF5FEAE0
:1015C000500E50F1000041EB045170BD06F0004692
:1015D00046EA010140EA020081EA0301B4EB5C043F
:1015E000C2BFD4EB0C0541EA045170BD41F4801137
:1015F0004FF0000E013C00F3AB8014F1360FDEBF5C
:10160000002001F0004170BDC4F10004203C35DA37
:101610000C341BDC04F11404C4F1200500FA05F3BA
:1016200020FA04F001FA05F240EA020001F000425B
:1016300021F0004110EBD37021FA04F642EB0601D1
:101640005EEA430E08BF20EAD37070BDC4F10C04FB
:10165000C4F1200500FA04F320FA05F001FA04F2BF
:1016600040EA020001F0004110EBD37041F10001AB
:101670005EEA430E08BF20EAD37070BDC4F12005B6
:1016800000FA05F24EEA020E20FA04F301FA05F21E
:1016900043EA020321FA04F001F0004121FA04F2C6
:1016A00020EA020000EBD3705EEA430E08BF20EA96
:1016B000D37070BD94F0000F0FD101F000464000D0
:1016C00041EB010111F4801F08BF013CF7D041EA52
:1016D000060195F0000F18BF704703F00046520056
:1016E00043EB030313F4801F08BF013DF7D043EA27
:1016F0000603704794EA0C0F0CEA135518BF95EADD
:101700000C0F0CD050EA410618BF52EA4306D1D163
:1017100081EA030101F000414FF0000070BD50EA82
:10172000410606BF1046194652EA430619D094EA0C
:101730000C0F02D150EA013613D195EA0C0F05D1F6
:1017400052EA03361CBF104619460AD181EA03014A
:1017500001F0004141F0FE4141F470014FF0000002
:1017600070BD41F0FE4141F4780170BD70B54FF09D
:10177000FF0C4CF4E06C1CEA11541DBF1CEA13551D
:1017800094EA0C0F95EA0C0F00F0A7F8A4EB0504FF
:1017900081EA030E52EA03354FEA013100F08880F6
:1017A0004FEA03334FF0805545EA131343EA1263BF
:1017B0004FEA022245EA111545EA10654FEA002674
:1017C0000EF000419D4208BF964244F1FD0404F52D
:1017D000407402D25B084FEA3202B61A65EB030589
:1017E0005B084FEA32024FF480104FF4002CB6EB46
:1017F000020E75EB030E22BFB61A754640EA0C00C6
:101800005B084FEA3202B6EB020E75EB030E22BF05
:10181000B61A754640EA5C005B084FEA3202B6EB46
:10182000020E75EB030E22BFB61A754640EA9C0005
:101830005B084FEA3202B6EB020E75EB030E22BFD5
:10184000B61A754640EADC0055EA060E18D04FEA93
:10185000051545EA16754FEA06164FEAC30343EA33
:1018600052734FEAC2025FEA1C1CC0D111F4801F00
:101870000BD141EA00014FF000004FF0004CB6E7F9
:1018800011F4801F04BF01430020B4F1FD0C88BF98
:10189000BCF5E06F3FF6AFAEB5EB030C04BFB6EBA3
:1018A000020C5FEA500C50F1000041EB045170BD96
:1018B0000EF0004E4EEA113114EB5C04C2BFD4EBC3
:1018C0000C0541EA045170BD41F480114FF0000E47
:1018D000013C90E645EA060E8DE60CEA135594EAC3
:1018E0000C0F08BF95EA0C0F3FF43BAF94EA0C0FC6
:1018F0000AD150EA01347FF434AF95EA0C0F7FF43B
:1019000025AF104619462CE795EA0C0F06D152EA8E
:1019100003353FF4FDAE1046194622E750EA410672
:1019200018BF52EA43067FF4C5AE50EA41047FF483
:101930000DAF52EA43057FF4EBAE12E74FF0FF3CE8
:1019400006E000BF4FF0010C02E000BF4FF0010CB9
:101950004DF804CD4FEA410C7FEA6C5C4FEA430C32
:1019600018BF7FEA6C5C1BD001B050EA410C0CBF81
:1019700052EA430C91EA030F02BF90EA020F0020E3
:10198000704710F1000F91EA030F58BF994208BF4A
:1019900090422CBFD8176FEAE37040F00100704707
:1019A0004FEA410C7FEA6C5C02D150EA013C07D15E
:1019B0004FEA430C7FEA6C5CD6D152EA033CD3D0A9
:1019C0005DF8040B704700BF8446104662468C46A3
:1019D0001946634600E000BF01B5FFF7B7FF0028D6
:1019E00048BF10F1000F01BD4DF808EDFFF7F4FFFF
:1019F0000CBF012000205DF808FB00BF4DF808ED8A
:101A0000FFF7EAFF34BF012000205DF808FB00BFAC
:101A10004DF808EDFFF7E0FF94BF012000205DF8CE
:101A200008FB00BF4DF808EDFFF7CEFF94BF012083
:101A300000205DF808FB00BF4DF808EDFFF7C4FF7C
:101A400034BF012000205DF808FB00BF4A0011D21E
:101A500012F5001211D20DD56FF47873B3EB625208
:101A60000ED44FEAC12343F0004343EA505323FA14
:101A700002F070474FF00000704750EA013002D189
:101A80004FF0FF3070474FF0000070474FEA4102BF
:101A9000B2F1E04324BFB3F5001CDCF1FE5C0DD9CC
:101AA00001F0004C4FEAC0024CEA5070B2F1004F16
:101AB00040EB830008BF20F00100704711F0804F19
:101AC00021D113F13872BCBF01F00040704741F4DE
:101AD00080114FEA5252C2F11802C2F1200C10FAE2
:101AE0000CF320FA02F018BF40F001004FEAC123C6
:101AF0004FEAD32303FA0CFC40EA0C0023FA02F36A
:101B00004FEA4303CCE77FEA625307D150EA01333F
:101B10001EBF4FF0FE4040F44000704701F000400F
:101B200040F0FE4040F40000704700BF80F00040ED
:101B300002E000BF81F0004142001FBF5FEA4103A5
:101B400092EA030F7FEA226C7FEA236C6AD04FEAA5
:101B50001262D2EB1363C1BFD218414048404140EA
:101B6000B8BF5B42192B88BF704710F0004F40F49C
:101B7000000020F07F4018BF404211F0004F41F4B8
:101B8000000121F07F4118BF494292EA030F3FD084
:101B9000A2F1010241FA03FC10EB0C00C3F1200397
:101BA00001FA03F100F0004302D5494260EB400026
:101BB000B0F5000F13D3B0F1807F06D340084FEA91
:101BC000310102F10102FE2A51D2B1F1004F40EB86
:101BD000C25008BF20F0010040EA030070474900EE
:101BE00040EB0000013A28BFB0F5000FEDD2B0FA8B
:101BF00080FCACF1080CB2EB0C0200FA0CF0AABFAE
:101C000000EBC25052421843BCBFD040184370474B
:101C100092F0000F81F4000106BF80F40000013251
:101C2000013BB5E74FEA41037FEA226C18BF7FEA28
:101C3000236C21D092EA030F04D092F0000F08BF6A
:101C40000846704790EA010F1CBF0020704712F051
:101C50007F4F04D1400028BF40F00040704712F190
:101C600000723CBF00F50000704700F0004343F0F5
:101C7000FE4040F4000070477FEA226216BF08462B
:101C80007FEA23630146420206BF5FEA412390EAEE
:101C9000010F40F4800070474FF0000304E000BFE4
:101CA00010F0004348BF40425FEA000C08BF704795
:101CB00043F0964301464FF000001CE050EA010259
:101CC00008BF70474FF000030AE000BF50EA01026E
:101CD00008BF704711F0004302D5404261EB41015B
:101CE0005FEA010C02BF84460146002043F0B64380
:101CF00008BFA3F18053A3F50003BCFA8CF2083AA5
:101D0000A3EBC25310DB01FA02FC634400FA02FCAD
:101D1000C2F12002BCF1004F20FA02F243EB0200B4
:101D200008BF20F00100704702F1200201FA02FC16
:101D3000C2F1200250EA4C0021FA02F243EB020009
:101D400008BF20EADC70704753B94AB9002908BFC0
:101D500000281CBF4FF0FF314FF0FF3000F02AB8D1
:101D6000ADF1080C6DE904CE00F07BF8DDF804E07D
:101D7000DDE9022304B07047D0B50C4B00220646C3
:101D80000F46FFF7C9FBFFF761FE0446FFF74AFB6A
:101D9000074B0022FFF7C0FB02460B463046394690
:101DA000FFF702FAFFF752FE2146D0BD0000F03DDA
:101DB0000000F041704700BF4FEA410C7FEA6C5CC5
:101DC00002D150EA013C0AD14FEA430C7FEA6C5C35
:101DD00002D152EA033C02D14FF0000070474FF0AD
:101DE000010070474FEA410212F5001215D211D5D9
:101DF0006FF47873B3EB625212D94FEAC12343F008
:101E0000004343EA505311F0004F23FA02F018BF89
:101E1000404270474FF00000704750EA013005D152
:101E200011F0004008BF6FF0004070474FF0000015
:101E3000704700BF38B50022002304460D46FFF767
:101E4000DDFD28B920462946BDE83840FFF794BF9C
:101E5000204605F10041FFF78FFF404261EB410151
:101E600038BD2DE9F04786468C460846089E154643
:101E700074461946002B40F0C2808542B2FA82F2C5
:101E800045D94AB1C2F1200300FA02FC2EFA03F34D
:101E9000954043EA0C0C94404FEA154EA8B2BCFBA7
:101EA000FEF8230C0EFB18CC08FB00F943EA0C43A8
:101EB000994528D9EB1808F1FF3704D2994502D982
:101EC000A8F102072B44A3EB0903A4B2B3FBFEFC69
:101ED0000EFB1C330CFB00F044EA0344A04214D96F
:101EE0002C190CF1FF3304D2A04202D9ACF1020349
:101EF0002C44241A43EA07401EB1D4400023346026
:101F00007360BDE8F0874746DDE76346F1E792BBC3
:101F1000431B01214FEA154EAFB2B3FBFEFC200C70
:101F20000EFB1C330CFB07F840EA0343984562D9CB
:101F3000EB180CF1FF3004D2984502D9ACF1020045
:101F40002B44A3EB0803A4B2B3FBFEFC0EFB1C3333
:101F50000CFB07F744EA0344A7424ED92C190CF1B5
:101F6000FF3304D2A74202D9ACF102032C44E41B94
:101F700043EA0040C0E7C2F1200320FA03F1954094
:101F800090402EFA03F303434FEA154EAFB2B1FB74
:101F9000FEFC0EFB1C10190C0CFB07F841EA00417B
:101FA000884504FA02F422D969180CF1FF3004D2F2
:101FB000884502D9ACF102002944A1EB08019BB28B
:101FC000B1FBFEFC0EFB1C110CFB07F743EA0143BF
:101FD0009F420ED9EB180CF1FF3104D29F4202D977
:101FE000ACF102012B44DB1B41EA004192E7604661
:101FF000E3E76146F7E76046A3E76346B7E7834256
:1020000006D916B9002108467BE7C6E900E0F9E7E2
:10201000B3FA83F78FB9834201D3724508D8BEEB78
:10202000020460EB030301209C461EB9002168E70F
:102030003846FAE7C6E9004CF8E7C7F1200CBB4088
:1020400022FA0CF41C432EFA0CF120FA0CF3B840DF
:1020500001434FEA14490EFA07F5B3FBF9F81FFAEA
:1020600084FE09FB18300B0C08FB0EFA43EA004310
:102070009A4502FA07F240D9E31808F1FF3004D27A
:102080009A4502D9A8F102002344A3EB0A0389B2BE
:10209000B3FBF9F809FB183308FB0EFE41EA0341D4
:1020A0008E452CD9611808F1FF3304D28E4502D930
:1020B000A8F10203214443EA0040A0FB0298A1EBEF
:1020C0000E014145CE46434602D306D14D4504D2CA
:1020D000B9EB020E68EB04030138002EA6D0B5EB75
:1020E0000E0261EB030101FA0CFC22FA07F34CEA41
:1020F0000303F940C6E9003198E74046C5E7434687
:10210000D9E710F8012B11F8013B012A28BF9A42A8
:10211000F7D0D01A7047034613F8012B002AFBD1E1
:10212000181A0138704700002DE9F04F2DED028B91
:1021300089B0AD480FF094FABDF8082002F0C00253
:1021400040F2023142F48072002483460191ADF8DE
:1021500008208DF80A40826801A912689047BDF8EE
:1021600008208DF80A4002F0C00242F410624FF4D9
:10217000806142F001020191ADF80820DBF80820EF
:102180009A4D126801A958469047994A03944FF412
:102190004370ADF81C009749974B05950224012028
:1021A00006940490C2F808161A78002A40F0FE80BF
:1021B0004FF0A0444FF4001A79E03068FFF754F96B
:1021C0007FA3D3E90023FFF719FC002800F0DE808D
:1021D0008A4BC3F800808A4BD3ED008A1868FFF75A
:1021E00043F978EEC87A064617EE900A0F46FFF7D5
:1021F0003BF9844B0022FFF78FF90B460246394624
:102200003046FEF7D1FFFFF741FC7D4B18607E4B57
:1022100083F800800223C4F808A50493DBF8083093
:1022200003A95B6858469847A8BB784BD3F8008051
:102230001868FFF719F9064640460F46FFF714F9EC
:102240008046B5F9000007EE900AF8EEE77A894675
:1022500017EE900AFFF708F95BA3D3E90023FFF715
:1022600085FA5BA3D3E90023FFF756F902460B4634
:1022700040464946FEF798FF57A3D3E90023FFF7EE
:102280004BF90B46024639463046FEF78DFFFFF705
:10229000FDFB5E4B18600420002110F075FA544BD2
:1022A000544AC3F80826544B1B78002B7ED1C4F83F
:1022B0000CA50021012010F067FA01230493DBF83C
:1022C0000830534F5B6803A958469847D4F808373D
:1022D0003B4043F00C03C4F80837B5F90090804642
:1022E000DBF8083003A95B6858469847D4F80837EC
:1022F0003B4043F00403C4F80837B5F9003080448C
:1023000008EE103ADBF8083003A95B685846984796
:10231000D4F80837B5F900203B4043F0020318EB2E
:102320000008C4F808377FF475AF07EE902ADFED98
:10233000395A394B394EF8EEE76AB8EEC86A07EEFB
:10234000909A86EE257A86EEA56AF8EEE77AB6EEE2
:10235000005A87EEA58A77EE067A37EE467A67EE60
:10236000857AB0EEC77A78EE677A83ED007AF0EE80
:10237000E77AC6ED007A1868FFF776F818A3D3E974
:102380000023FFF73BFB00287FF417AF1B4A1368BD
:10239000013313601368C82B7FF73CAF184A4FF026
:1023A0007C531360184A0123137033E7104D114C0E
:1023B000C5F8084600210A2010F0E6F9F8E700BF4A
:1023C000333333333333C33F0000000000FEAF40EC
:1023D000CCCCCCCCCCCC0C407B14AE47E17A943F37
:1023E0009A9999999999D93F707601005C69002072
:1023F000000001403546526E5E690020680F0020E3
:10240000CC0000200000E03F62690020740F002033
:10241000F0F8FCFF00F07F45700F00206C0F0020EB
:102420002DE9F04F2DED068B97B09FEDBF9ADFF8A9
:1024300050B3BE4C9FEDBEAADFEDBE9ABE4D05F077
:102440004DFAB0EE498A0F26F7EE008A4FF4C879AC
:102450000027C4F804569FBBA9F10A0919F1630FBC
:10246000ACBF00270127002005F0E6FA002005F0A8
:10247000E9FA05F0C7FA4FF0FF3106913520D02177
:10248000CDE90410802300224FF06A0C4FF4D07184
:10249000CDE9021CCDE90023F0EE681AB0EE491A2E
:1024A000F0EE4A0AB0EE690A40214846CDE9076BD2
:1024B00001F056FC05F00AFCC4F80456002FCBD0FE
:1024C000012F05D0022FCED1002E56D0013ECAE7F3
:1024D00018EE900AFEF7C8FF8FA3D3E90023FEF79A
:1024E00063FEFFF7D3FA09F10409B9F13F0F08EED3
:1024F000900A0DDC19EE100AFEF7B6FF88A3D3E9A7
:102500000023FEF753FEFFF7C1FA09EE100AAAE70F
:10251000002005F091FA002005F094FA05F072FA17
:102520004FF0FF3135200691D021CDE904108023F2
:1025300000224FF4D0716A20CDE90210CDE90023CA
:10254000F0EE681AB0EE481AF0EE4A0AB0EE690AE8
:1025500040214846CDE9076B01F002FC05F0B6FBCF
:102560006427C4F804560A20002110F00DF9013F39
:10257000F7D1B0EE489A02276BE7C82004F0AAF81A
:102580006E4BDFF80082129601221A7098F8003024
:1025900013966B4EC4F80456DBB20C93337803F0F9
:1025A000FF020D92002B40F0A9800F239FED659A4A
:1025B000654CDFF8D4A1654F654D0B934FF0FF39A3
:1025C0002368002B54DA9AF8003003F0FF09002B3F
:1025D00040F0DC803B68002B00F3D88098F8003096
:1025E0000C9A934200F0128198F80030DBB20C9301
:1025F0006323584A0020136005F01EFA002005F0FE
:1026000021FA05F0FFF9544B544800930A220F2396
:10261000082105F01DFA524B504800931A220F234F
:10262000082105F015FA4F4B00934C480F23322236
:10263000042105F00DFA98F80030002B40F00384D7
:10264000494B009345480F234222042105F000FA2C
:10265000464B4248009352220F23082105F0F8F917
:1026600005F034FB0A2004F035F84FF0FF393DE067
:10267000B9F1000F4FF00000B8BFD4F8009005F09A
:10268000DBF9002005F0DEF905F0BCF9384B0093CA
:102690001C220F233148202105F0DAF9206807EECB
:1026A000900AF8EEE77A17EE900AFEF7DDFE314B5E
:1026B0000022FFF75BF8304B0093CDE902010F23B6
:1026C0002E483022202105F0C3F922680F23009301
:1026D00050210A230020D20192FBF9F205F040FAC2
:1026E00005F0F4FA0A20002110F04EF80F4B124AC0
:1026F000C3F804263378002B3FF462AF05F08AF963
:102700000A4D0D4CC5F8044600210A2010F03CF893
:10271000F8E700BFAFF300809CC420B07268913F1F
:1027200033333333333321400000000000000140D5
:1027300000005442000050433546526E5F6900204D
:102740005E6900202F121F3FC8000020C80E002025
:10275000800F0020C40E0020D476010030A80300B2
:10276000E0760100EC7601000C7701001C77010097
:102770007876010000408F40847601001C0403003D
:10278000FCAD02002C0F002062690020002005F043
:1027900053F9002005F056F905F034F93A4B3B485F
:1027A00000930A220F23082105F052F9384B3748CD
:1027B00000931A220F23082105F04AF9354B3348BC
:1027C000009332220F23042105F042F9324B2F48A7
:1027D000009342220F23082105F03AF92F4B009372
:1027E0002A480F235222082105F032F99AF80030C6
:1027F000002B41D04FF4C8733B6005F067FA00210D
:102800000A204FF0FF390FF0BFFF6FE7244B1B6822
:10281000002B00F3D48305F0F5F898F800301298F7
:10282000002BB7EE008A14BFF0EE498AF0EE488A1A
:102830007F2800F3FE80139B7F2B35DD421EFD2A8F
:1028400000F22D82002B00F39F82164A1278002A94
:1028500000F0818213A80F22802104F07DFF0F2257
:10286000802112A804F078FF05F030FA0A2003F066
:1028700031FF4FF0FF3939E73B68002BC4BF03F14C
:10288000FF333B60B9E700BF8C76010030A803003E
:1028900098760100A4760100B4760100C4760100A8
:1028A000C40E002060690020404205F0C5F813986E
:1028B000404205F0C7F8D04B01934FF00F0B802337
:1028C0001A4649464846CDF800B005F07DF9686AD9
:1028D000FEF7CAFDC94B0022FEF768FC01F1004378
:1028E0000F930E90DDE90E01C54B0022FEF714FE9A
:1028F000C44B0022FEF710FEFFF7C8F8C24B9FED55
:10290000C30ACDF81090CDE907B30C2180234A46C5
:1029100001EE100ACDE905990D20F0EE481AFAEE05
:10292000080ACDF8009001930391CDF808B04C212E
:1029300001F016FAB64B9FEDB72ADFEDB70A93ED1B
:10294000000AB0EE481AF3EE031A04F0DFFEB34BB0
:10295000FDEEC07A062217EE900ACDE900B35A21A7
:10296000032305F031F9D5ED027AF0EEE77A17EEA0
:10297000900AFEF779FD9EA3D3E90023FEF7CCFD74
:10298000CDE9100118EE900AFEF76EFD0B460246E7
:10299000DDE91001FEF7C0FDFFF778F898F8003088
:1029A0008146002B40F088829D4B00939D485B46FA
:1029B00020222E2105F04CF800EE109A10F080FC39
:1029C000F2EE047AB4EEE70AF1EE10FA48464CBF94
:1029D0004FF034094FF02709FEF746FD924B009364
:1029E000CDE902010F23914849462C2205F030F829
:1029F0008F4B1B68012B00F0D9828D4B1B68022B7B
:102A000000F0E0828B4B1B78002B40F072828A4BE7
:102A10001B68DB0700F16582052304227C21462028
:102A200005F03EF80F233A2004227C2105F038F807
:102A30001298139B421EFD2A00F231817F2B3FF733
:102A400001AFC0F1800004F0F7FF13989FED7B8A7F
:102A5000404204F0F7FF7A4B0193002180230F22BC
:102A6000084600921A4605F0AFF8D5ED017A9FEDC1
:102A70006A0A67EE887AF0EE480A14A8CDED147A57
:102A800004F052FE6F4BDFED641A93ED000ADFEDA8
:102A90006E0AB0EE482AB0EE081A04F037FEF0EEE7
:102AA000480AF0EE407A15A89FED5B0ACDED157A45
:102AB00004F03AFE654B9DED147AD3ED007A77EE83
:102AC000677AF6EE006AF0EEE77AF4EEE67AF1EE77
:102AD00010FAC8BF83ED007A5D4B9DED157AD3EDFA
:102AE000007A77EE677AF7EE006AF0EEE77AF4EEB6
:102AF000E67AF1EE10FAC8BF83ED007A534B1868FE
:102B0000FEF7B2FC534B0093CDE902010F2352486C
:102B10000922302104F09CFF4D4A1068FEF7A4FC06
:102B20004C4B0093CDE902010F234C486422422113
:102B300004F08EFF98F80030002B40F0AD8195ED49
:102B4000037ADFED477AE868B4EEE77AF1EE10FA3F
:102B500040F1EE81FEF788FCCDE90201414B31489E
:102B600000933D220F232A2104F072FF95ED077A8E
:102B7000D5ED087AD5F80C90F0EEE77A77EE677A23
:102B800017EE900AFEF770FC02460B464846CDE968
:102B90001023FEF769FC344B0022FEF7E7FD0B46DD
:102BA0000246DDE91001FEF7E1FDFEF76FFF95ED4E
:102BB000067A98F8003008EE100AC7EE087AF5EEAB
:102BC000C07AF1EE10FA48BFDFED137A002B00F067
:102BD000998167EEA87A17EE900AFEF745FC234B21
:102BE0000093CDE902010F2342E000BFAFF3008064
:102BF000CDCCCCCCCCCC0C40A0BC01000000F03F34
:102C00000000E03F00806B40ACDC01000000484267
:102C1000CC0000200000CC4200000000A0DC01003D
:102C20003077010048920300387701000CDD010085
:102C3000640F0020616900207C0F00200000C84262
:102C4000A09C0100740F0020CDCC0C40C00E0020D1
:102C5000BC0E00204C770100604B0300707603002F
:102C600000007A445C77010000408F406C770100DF
:102C7000B44824222A2104F0EBFEC8EE287A17EE8D
:102C8000900AFEF7F1FBCDE90201AF4BAF4800938C
:102C90004E220F232A2104F0DBFEDDE912038028F7
:102CA0007FF7D0AD7F2B3FF7CDADC0F5807004F03E
:102CB000C3FE1398404204F0C5FEA54B01934FF0AC
:102CC0000F09802300211A460846CDF8009004F031
:102CD0007BFF2869FEF7C8FB9E4B00931D22CDE9C0
:102CE00002014B463421974804F0B2FE6B69DFEDD8
:102CF0009A0A9FED9A0A159315A804F015FD1598E8
:102D0000FEF7B2FB934B0093CDE902014B464C22F8
:102D10008C482A2104F09CFE914A13680133642BED
:102D2000136000F3D280322B13DD002000902823A3
:102D300078226B2104F014FF8A4B009301224FF09C
:102D4000030ECDE9012E88484B466E22082104F07F
:102D50007FFE139B76E5002B40F08A80834B1B6837
:102D6000002B00F0B680814B1B68012B00F0B38074
:102D70007E4B1B68022B7FF477AD0F224FF48071DE
:102D800012A804F0E9FC6FE51298C0F1800004F08D
:102D900053FE1398C0F1800004F054FE744B724847
:102DA00000930A220F23082104F052FE714B6E4853
:102DB00000931A220F23082104F04AFE6E4B6A4842
:102DC000009332220F23042104F042FE6B4B66482D
:102DD000009342220F23042104F03AFE684B62481C
:102DE000009352220F23042104F032FE654B01931D
:102DF0000B9B23EAE3735B1041226D210093242097
:102E0000102304F0E1FE04F061FF0D990B9A0029F4
:102E100014BF01234FF0FF33D3181A461F2A0B9318
:102E2000139B1ADD81F001020D921F220B92564A6C
:102E30001278002A8FD0802B7FF40CAD129B802B50
:102E40007FF408AD10E5514B009347480F23422211
:102E5000082104F0FDFDFFF7FBBB0B9A0A32E6DA0E
:102E60000D9A82F001020D926FF009020B92DEE7DB
:102E70000F22002113A804F06FFC3C4B1B68002BB1
:102E80007FF471AF139B002BC8BF0F2221DD0021FF
:102E900012A804F061FCE7E4D5ED037A67EEA87AA6
:102EA00017EE900AFEF7E0FA394B0022FEF75EFCBF
:102EB000384BCDE9020152E6374B009323485B467D
:102EC0002022332104F0C4FD76E500231360139B18
:102ED000B8E41922DBE70F22802112A804F03CFCA1
:102EE000C2E40F2304227C21462004F0D9FD0523EF
:102EF00099E52A4B009313480F2364224F2104F0D5
:102F0000A7FD84E517EE900AFEF7AEFA244B009376
:102F1000CDE902010F230B4824222A2104F098FD59
:102F200018EE100AFEF7A0FA1E4BCDE90201ADE63D
:102F3000FEF79AFA164B0022FEF718FC1A4BCDE961
:102F400002010CE6604B0300747701004892030015
:102F5000A07C01004C7701000080F9430000C6C24C
:102F6000B80E00209477010030A80300600F002005
:102F7000A8770100B4770100C0770100D077010085
:102F8000E0770100907A010060690020FC76010082
:102F900000408F40547701002C77010048770100F2
:102FA000807701008877010064770100064B009369
:102FB00006480F2364221F2104F04AFD22E5013B4D
:102FC000FFF717BB024BF2E740770100604B0300AD
:102FD00044770100000000002DE9F04F2DED028B39
:102FE0004FF0A0433F49D3F84C273F483F4C0A409D
:102FF00042F00C02C3F84C27D0F804270A4042F0F4
:103000000C02C0F80427D3F834270A4042F00C021F
:10301000C3F83427D3F854270A4042F003024FF490
:103020005C218FB0C3F85427216031480BAA0BF004
:10303000D9F9002840F0DD840C9A2C48A2810223A3
:10304000E38107F031FE002840F0DE8401232748A9
:10305000284A194608F0D4F9012802D0254A00234D
:10306000137003F00BFC03F039FB044603F036FB4E
:10307000002840F0C384204C2048214D4FF0FF33FE
:1030800022780821534043F300020240013982EACA
:103090005303F8D10134AC42F2D1DC431948214644
:1030A00005F0E4FC204603F04FFB3225204603F0F8
:1030B0009BFB013DFAD1144C0B4E03F039FB04F09D
:1030C000C3F94FF48043C4F80C55C4F80435D4F860
:1030D00008350E4D012243F00703C4F8083522607D
:1030E0001EE000BFF0F8FCFF00030050300F00208E
:1030F000B07201002C0F0020A4000010783BF68273
:10310000AA00001070780100000001403546526EA0
:10311000000000000A2000210FF036FBC4F8005622
:103120004FF0A043D3F810251103F3D5D6F810259E
:103130009207EFD5D3F810359F04EBD5642003F048
:10314000C9FA00235FED0E8ADFF82493DFF824A389
:10315000DFF824830593CDE90633CDE90233B0EEE1
:10316000688A04931C469B46B74BB84AC3F80026AE
:10317000B74B1868FEF778F902460B46FEF716F8CB
:10318000B44B0022FEF710F8FEF780FC07EE900A21
:10319000F0EEE77A019017EE900AFEF765F9A0A32A
:1031A000D3E90023FEF72AFC054688B1AA4A136832
:1031B000002B00F07F82D2ED027AB7EE007AF0EEBB
:1031C000E77AF4EEC77AF1EE10FA00F17382002587
:1031D0004FF0A043D3F81025100300F14F81D3F82E
:1031E000103513F4005B00F05581002C00F087824D
:1031F000F7EE007AF4EEE78AF1EE10FA01984CBF90
:103200004FF0010B4FF0000BFEF72EF95C4606461F
:103210000F46002D40F047815D46F6EE007AB4EE91
:10322000E78AF1EE10FA00F37D827FA3D3E9002351
:1032300030463946FEF7E2FB0446002840F078832A
:103240007BA3D3E9002330463946FEF7F5FB00287F
:1032500040F06B830023CDE906332C460293002C0B
:1032600000F0428200250023CAF8003098F80030B0
:1032700003F0FF0B002B00F0C481784B3046002692
:10328000C9F800601E60764B39461E706AA3D3E908
:103290000023FEF7D1FB28B12C4303D088F800604F
:1032A000CDF810B04FF0A043D3F810351B0340F118
:1032B0008C816C4BD3F810359F0740F18681039BBE
:1032C000002B00F0FD814FF0A043D3F8102515032B
:1032D00040F18281634AD2F810158C0740F17C815D
:1032E000D3F81015880440F17781D3F8101509033D
:1032F00040F1D281D2F81025920740F1CD81D3F868
:103300001045002384F40054C4F340341E46039354
:103310009B464FF0A045D5F81035180340F1E580E5
:10332000504BD3F81035990740F1DF80002E40F064
:10333000B482D5F810359A0440F108839FED4A8A8B
:10334000DFED498AD9F80030022B00F02281F0EE3F
:10335000007AB4EEE78AF1EE10FA40F3C380F4EE9F
:10336000E78AF1EE10FA40F3BD80059B23B93F4A8E
:10337000137883F0010313700123059398F800304C
:10338000002B40F0AD80049B002B40F0A9800198F9
:10339000FEF76AF82F4B0022FDF708FF28A3D3E9B8
:1033A0000023FEF7B9F8FEF751FBC0B22C4BD9F859
:1033B00000201B788DF826001B01022A08BF43F06D
:1033C000010343F008038DF8273048F20103ADF8FC
:1033D00024300023ADF8283004F07EF8062109A837
:1033E00003F0DCF90A2503F055FF28B9012000217C
:1033F0000FF0CAF9013DF6D104F026F8142000219F
:103400000FF0C2F9DAF800300133CAF80030DAF808
:103410000030B3F57A7FFFF6A7AE03F043FAA3E6D8
:103420009A9999999999B93F7B14AE47E17AB4BFBB
:103430007B14AE47E17AB43FCDCCCCCCCCCCEC3FC6
:103440000000000000C05F40000001403546526EA1
:10345000CC0000200000F03F800F0020600F002013
:103460006169002000030050000000002C0F0020C4
:10347000640F0020780F002060690020C64AD2F84F
:103480001025D3F81035910700F1308113F4005B5B
:103490007FF4ABAE0198FDF7E7FF06460F46002D1F
:1034A0003FF4BBAE5C464FF0A043D3F8103513F4A5
:1034B000002300F03481029A0025B74BD3F8103571
:1034C00013F0020300F0F981079B0133092B0793E6
:1034D00000F3F581029B012B00F0FE8102928CE14A
:1034E0007F2063E70023059348E718EE100AFDF7F5
:1034F000BBFF9FA3D3E90023FDF758FEFEF7C6FAF2
:103500004FF0A04308EE100AD3F810359B0402D503
:10351000002E3FF415AF18EE900AFDF7A5FF94A317
:10352000D3E90023FDF742FEFEF7B0FA08EE900A59
:10353000F7EE007AF4EEE78AF1EE10FA7FF702AFC9
:1035400018EE100AFDF790FF8BA3D3E90023FEF7D6
:1035500055FA00283FF4F6AE98F8003003F0FF0566
:10356000002B7FF4EFAE8D4BD3ED027AB7EE007AED
:10357000F0EEE77AF4EEC77AF1EE10FA7FF5E2AEFC
:1035800003F038FAD9F80030022B2C46AB467FF412
:10359000DEAEF6EE007AB4EEE78AF1EE10FA7FF7CF
:1035A000D6AE18EE900AFDF75FFF73A3D3E90023B0
:1035B000FEF724FA9DED017A0028F7EE007A18BF95
:1035C000B0EE677A8DED017AC1E64FF0A043D3F8F3
:1035D00010359E043FF573AE4FF0A043D3F810258D
:1035E000150304D56C4AD2F81025940701D44FF086
:1035F000A043D3F81035002401230393A3461E46AD
:1036000087E6664BD3ED027AF0EEE77A17EE900A82
:10361000FDF72AFF58A3D3E90023FEF7EFF9E8B13D
:1036200057A3D3E9002330463946FEF7E7F9A8B19E
:103630008DB930463946002C40F0BE814EA3D3E907
:103640000023FEF7DBF998F8003000283FF42AAE9B
:103650000023049326E6012388F8003046A3D3E92B
:10366000002330463946FEF7C9F90028049B18BFED
:103670000023049398F80030002B7FF413AE002C45
:103680003FF410AE464A1368013313601368022BEF
:10369000C4BF0023136005E64FF0A0434FF0010BB9
:1036A000D3F8104500236FEA543404F00104039367
:1036B0001E462EE6D9F80050023D18BF012587E5C9
:1036C0004FF0A043D3F810251703E5D5324AD2F8BE
:1036D00010259607E0D5D3F81045039E84F40054D6
:1036E000C4F34034B34614E62546BFE5BBF1000FF2
:1036F00058D19A047FF5CEAE002C7FF479AD0198B5
:10370000FDF7B2FE06460F46002D3FF486AD4FF0A2
:10371000A043D3F8103513F400237FF4CCAE079305
:103720001D466AE018EE900AFDF79EFE12A3D3E94B
:103730000023FEF763F90446002840F0F18012A34D
:10374000D3E9002330463946FEF758F9834600286E
:1037500040F0EB800EA3D3E9002330463946FEF754
:103760006BF900283FF476ADC9F800B072E500BFF0
:103770007B14AE47E17A943F9A9999999999B93F08
:10378000CDCCCCCCCCCCECBF7B14AE47E17AB4BF73
:103790007B14AE47E17AB43F00030050800F002055
:1037A000600F002013F4005300F0B88044B1F7EE2E
:1037B000007AF4EEE78AF1EE10FA4CBF01240024FF
:1037C0000198FDF751FEF6EE007A06460F46B4EE7C
:1037D000E78A002D00F0B080F1EE10FA7FF563AEBD
:1037E0004FF0A043029AD3F8103513F4002302F1EE
:1037F00001027FF462AE02920793F6EE007AB4EE15
:10380000E78AF1EE10FA0FDD18EE900AFDF72CFEB4
:1038100087A3D3E90023FEF7F1F828B1D9F80030E7
:1038200083BB0223C9F800307DA3D3E900233046CF
:103830003946FEF7E3F8C8B97BA3D3E90023304645
:103840003946FEF7F9F888B9029B012B14DDC9F857
:103850000000069B23B9784A137883F001031370A4
:1038600001230693002D7FF4FEACF8E40023C9F891
:103870000030029B012BECDC00230693002D7FF42B
:10388000F2ACECE4F6EE007AB4EEE78AF1EE10FA70
:10389000CAD50023C9F80030C6E718EE100AFDF7B4
:1038A000E3FD5DA3D3E90023FDF780FCFEF7EEF80E
:1038B000D5F8103508EE100A2DE607930AE6029BAC
:1038C000012B0CD0F6EE007AB4EEE78AF1EE10FA96
:1038D0005EDD0023029397E7002A7FF4FFADD9F85D
:1038E00000300293002B49D10223C9F80030304642
:1038F0004BA3D3E900233946FEF780F840B94AA329
:10390000D3E9002330463946FEF796F80028B3D0B5
:10391000029BC9F8003000230693AFE71C464FE72F
:103920002C4600250795029578E7C9F8004091E4F8
:103930000023C9F800308DE4F1EE10FA58BF254697
:103940007FF56BAC07950295012567E718EE900AA5
:10395000FDF78AFD30A3D3E90023FDF727FCFEF72E
:1039600095F808EE900AF7EE007AF4EEE78AF1EEA9
:1039700010FA9FED328A3FF7EFADE3E4F6EE007AFE
:10398000B4EEE78AF1EE10FA02D50023029380E745
:1039900023A3D3E9002330463946FEF72FF8D0B9E8
:1039A00021A3D3E9002330463946FEF745F890B904
:1039B00000230290069361E7012388F800301CA3DE
:1039C000D3E90023FEF71AF898F8003050B9002B1D
:1039D0007FF468AC56E60023C9F800300293002358
:1039E00006934BE703F0FF020492002B3FF44AAE2C
:1039F0002EE6134805F03AF8FFF71EBB11482146A2
:103A000005F034F8FFF737BB0F4805F02FF8FFF744
:103A10001DBB00BFAFF300807B14AE47E17A943F3B
:103A20007B14AE47E17AB4BF7B14AE47E17AB43F72
:103A30009A9999999999B93F61690020000000000D
:103A4000207801004C780100387801000000000067
:103A500038B59FED137B144B14481549154A4FF4A4
:103A6000F0750024C3F80855134B0C7080ED087BEB
:103A7000147021462022846210489C6283ED087BEA
:103A800012F07BFD0E4B1420C3E9004408F050FAFD
:103A90000C4B0322C3F8002238BD00BFAFF30080F7
:103AA000000000000000000000F00140B806002007
:103AB000636900206469002088060020101200203D
:103AC0003012002000100040002800F0EB8070B59C
:103AD000794D2B780446002B40F0D580774B6268F7
:103AE000774E206861681A60A268E368B446ACE863
:103AF0000F0020696169734B0024ACE803002022A9
:103B0000214671481C6012F038FD704B704AB17A42
:103B1000C3E90044337AC2F80C15C2F81035042BFF
:103B200008D8DFE803F003A40703A400694B4FF4AF
:103B300096721A603378002B00F0A080012B40F0C1
:103B40008480654B65491A460B60737A012B00F03F
:103B50008280022B00F09A80002B00F08480F07CA1
:103B600090479FED537B5A495D4A5E485E4B002467
:103B70004FF0E7369462846282ED087B80ED087B2B
:103B80005A4CC1F81C655A484FF04336C1F82065BD
:103B9000043AC1F82445C1F8280503F5947142F8A8
:103BA000043F25338B42FAD1524B534A03F59471AB
:103BB00042F8043F25339942FAD1504A504B5148BC
:103BC0000421C2F81015002440F20221C2F8084571
:103BD000C2F800124C49C3F83815C3F83C2510321E
:103BE000C3F84005C3F8442502F59872C3F8482588
:103BF000A2F5C832A2F59872C3F84C2502F5C83276
:103C000002F59A72C3F850250121314AC3F85425B0
:103C10000846224608F0AEF922460221142008F098
:103C2000A9F9224602211A2008F0A4F9012008F07F
:103C300071F9142008F06EF91A2008F06BF9334A74
:103C4000012314702B70204670BD244B1A68737AC0
:103C5000012B7FF47EAF1E49FF20C1F83C0540F2E6
:103C60000710C1F838051A49C1F8343577E7194B00
:103C7000A0221A603378002B7FF460AF244B1749E1
:103C80001A460B6061E7FFF7E3FE27E7104921487A
:103C90004FF6FF74C1F83C45C1F838050C49C1F82E
:103CA00034355CE76FF01500704700BFAFF300805C
:103CB0000000000000000000646900208412002061
:103CC000881200200C120020101200203012002058
:103CD0000010004000120020F16A0000F8110020DE
:103CE000B806002088060020D0100020E743C32338
:103CF000A363E313A80F00208406002000A0014066
:103D000000F00140041100400011004063690020F0
:103D10001D6B0000211001000F4B1B789BB14FF071
:103D20002003EFF3118283F31288BFF36F8F9FEDAF
:103D3000087B0A4B002083ED087B986282F3118890
:103D4000BFF36F8F70476FF00C007047AFF30080C8
:103D5000000000000000000064690020B806002098
:103D60002DE9F04F2DED068BF1EE417A85B08146BD
:103D700017EE900AB0EE618AF0EE609AB0EE40AABB
:103D8000174698460C46FDF76FFB73A3D3E9002353
:103D9000FDF7C2FB6C4B149EDDF870A00022FDF70E
:103DA000E5FCFDF773FE09EE100AB0EE490A0FF0CC
:103DB0000DFBF0EE408AB0EE490A0FF03DFA159B7C
:103DC0001B9A9DED197ADDED187AF3180132802BDC
:103DD000A8BF8023102AA8BF102202925B4A126853
:103DE0004A44F8EEC76A07EE102A594AF8EEE77A15
:103DF000126867EE887AB8EEC77AA21837EE677A4B
:103E000007EE902AB844B8F1800F66EE886AF8EEA3
:103E1000E77A26EAE676A8BF4FF08008B342DDE9EC
:103E2000165B28EE0A6A28EE294A77EEE67A40F316
:103E30008480FDEEE77ABDEEC77A17EE904A17EE62
:103E400010EA191B434B05F101097344341BF0EED2
:103E5000405A27EAE777F60103934FEA6909A8EB8E
:103E60000E00F446B84563DD07EE904AF8EEE74AE7
:103E7000CDE9007174EEC44AA7EB0C0224EEA85AF7
:103E800064EEA54A07EE902AB8EEE77A37EE467A56
:103E900067EE257A77EE857AFDEEE77AF8EEE77A37
:103EA00077EE867AFDEEE77AF8EEE77AC7EE886A73
:103EB000FDEEE67A17EE903A002B34DBAB4232DAB5
:103EC00067EE687A77EEA47AFDEEE77AF8EEE77AA5
:103ED00077EE847AFDEEE77AF8EEE77A87EE887A75
:103EE000FDEEC77A17EE907A002F1CDB4FEA630EC7
:103EF000DB4303F001035F4507FB09A14FEA83039E
:103F000011DA11F80E7003991F411A9B07F00F0781
:103F10009F42029B01EB060E13FB07F71CBFC7F382
:103F200003170EF8027001328242ABD1DDE9007155
:103F30000134A14206F1800694D105B0BDEC068B98
:103F4000BDE8F08FAFF3008000806640A41200202F
:103F5000A0120020A8120020182D4454FB21094073
:103F600010B52DED108BD0ED006AD0ED027AD2EDB8
:103F700000BA92ED02AA90ED016A92ED01BAD2ED7B
:103F800003AAD1ED00CA91ED01DAD1ED02DA6AEEB1
:103F9000275A6BEEA68A2AEE065A2BEE669A78EE20
:103FA000A58A6AEE865A2BEE867A39EE459A2BEE72
:103FB000066A2AEEA75A78EEE58A6BEE275A6BEE70
:103FC000A77A6CEEAC9A77EE867A2DEE0D6A37EE14
:103FD000657A79EE869A2DEEAD6A6AEEA65A79EE8A
:103FE000869A6AEE266A39EE459A77EEE67A37EED9
:103FF000257AF5EE409AF6EE006AF1EE10FA29EE17
:10400000269A68EEA68A27EE26CA27EEA68A82B0EE
:104010001446B0EE40EA00F13A81B1EEE9FA1FEE43
:10402000100AFDF721FAACA3D3E90023FDF704FD44
:10403000E8BB29EE0E9A68EE8E8A2CEE0E7A39EEE7
:104040002B9A78EE8B8A68EE0E7A68EEA86A37EEC5
:104050000A8A29EE097A77EEAA7A37EE267A28EECE
:10406000086A67EEA76A37EE067A37EE267AB5EE6B
:10407000407AF1EE10FA00F1FF80F1EEC76AB7EE78
:10408000006A86EE267A29EE079A68EE878A28EE7D
:10409000078A67EE877A84ED009AC4ED018A84ED81
:1040A000028AC4ED037A02B0BDEC108B10BDF0EEB5
:1040B0004FEAF7EE007AC7EE8F6AB1EE006A6CEE57
:1040C000A6CA6BEE063A7AEEAA4A2AEEAA4A6BEE26
:1040D000AB7A2CEEA43A23EE847A67EE867A3BEE36
:1040E000AB5A67EE8B2A37EE437A67EE8A7A2AEE6E
:1040F000063A37EE227A6CEE852A2DEE26DA23EE8A
:10410000044A77EEA27A6DEE244A2DEE055A77EE38
:10411000847A6DEEA66A77EEE47A37EE457A3AEE67
:104120000A4A37EEC35A77EE63DA26EE833A66EE32
:10413000A33A2BEE862A6AEE0A6A6BEE0B7A22EE1F
:10414000267A6CEE841A7BEE0B5A22EE272A37EE83
:10415000217AF2EE004A6BEE242A6CEEA5CA37EE05
:10416000027A6DEE255A6AEE244A37EE657A62EEDF
:10417000A75A67EE869A7DEEA5DA62EEA62A64EE6D
:10418000A75A2DEE044A64EEA64A7DEEA2DA35EE79
:1041900025DA66EE866A69EEAA9A7DEEA3DA3DEE2E
:1041A00024DA79EEEC9A66EEAA6A6DEEAD7A3DEE0F
:1041B00003DA79EEA69A27EE070A79EEC49A30EE72
:1041C000270A6DEE0D7A30EE270A69EEA97A30EEF5
:1041D000270AB5EE400AF1EE10FA71D4F1EEC07A7A
:1041E000B7EE006AC6EE276ADFED3D5A27EE267A63
:1041F0006DEEA67A2DEE26DA69EEA69AD4ED076A60
:1042000066EEA56ADFED375A6EEEA55A76EEA56A20
:1042100076EEC65AC4ED076AF0EEE55AF1EEE56AAD
:1042200076EE666AF4EEC66AF1EE10FA21DCF5EE7F
:10423000C06AF1EE10FA01D5DFED2B6A9FED296A15
:1042400027EE067A67EE867A2DEE06DA69EE869A12
:1042500027EE267A67EEA67A2DEE26DA69EEA69A82
:1042600039EE479A78EEE78A3CEE4DCA38EE698A15
:10427000DFE6F0EE466AE1E7B0EE470ACDED017AFF
:104280000FF0EAF8DDED017AF0EE406AF7E6B0EE05
:10429000690A0FF0E1F810EE100AF0EE40EAFDF7BF
:1042A000E3F80DA3D3E90023FDF7C6FB00283FF494
:1042B000C0AEB0EE690A0FF0CFF8B0EE40FAF8E603
:1042C0008DED017A0FF0C8F89DED017AF0EE407A9D
:1042D00086E700BFAFF300807B14AE47E17A843FEE
:1042E0006666663FCDCCCC3D0000000000000000BB
:1042F0002DE9F04F2DED068B23218DB0222004F007
:104300005DFB0AF0FBFBA24B1978002940F01D81F0
:10431000DFF8AC92DFF89C829E4F4FF0000A4FF01E
:104320007C5B06460AF0EAFB9B49821BC2F30E0344
:10433000A3FB0103D20BC00B40EA4340A2FB0131B7
:10434000C01841F10001FDF7B9FCDFED947A07EEEA
:10435000100A87EE27AA0AF0D1FB914B064605AA60
:1043600002A9032004F008FA002840F0E580BDF916
:10437000080007EE900AF8EEE77A17EE900AFDF7CC
:1043800073F8884B0022FDF7C7F852465B46FDF7ED
:10439000C3F8FDF77BFB09EE900ABDF90A0007EEB2
:1043A000900AF8EEE77A17EE900AFDF75DF87D4B7C
:1043B0000022FDF7B1F852465B46FDF7ADF8FDF778
:1043C00065FB0190BDF90C0007EE900AF8EEE77A64
:1043D00017EE900AFDF748F8724B0022FDF79CF8A3
:1043E00052465B46FDF798F8FDF750FB09EE100AC0
:1043F000BDF9140007EE900AF8EEE77A17EE900A7E
:10440000FDF732F8684B0022FDF786F852465B460E
:10441000FDF782F8FDF73AFB08EE900ABDF91600A9
:1044200007EE900AF8EEE77A17EE900AFDF71CF80F
:104430005D4B0022FDF770F852465B46FDF76CF8C5
:10444000FDF724FB0546BDF9180007EE900AF8EECB
:10445000E77A17EE900AFDF707F8534B0022FDF7B5
:104460005BF85B465246FDF757F8FDF70FFBD9F8AE
:10447000003008EE100AA3B10EF04EFC029B099327
:10448000BDF80C30ADF82830059BCDF82A30BDF8CA
:104490001830ADF82E30089008AB0FCBD9F800409B
:1044A000A047DDED017A7D60C8ED017AF1EE687A12
:1044B00017EE900AB1EE488AF1EE699AB1EE499A88
:1044C000C7ED007AC8ED009A88ED029A87ED028A5E
:1044D000FCF7CAFF2CA3D3E90023FDF71DF8334BEB
:1044E0000022FDF743F9FDF7D1FA08902846FCF7C2
:1044F000BBFF25A3D3E90023FDF70EF82B4B0022C9
:10450000FDF734F9FDF7C2FA099018EE100AFCF72E
:10451000ABFF1DA3D3E90023FCF7FEFF0022234BD2
:10452000FDF724F9FDF7B2FA214A0A902149B0EECD
:104530004A0A08A8FFF714FD0A2000210EF024F90A
:10454000134B1B78002B3FF4EDAE154810221423BB
:104550000271037303F08CFF174A1849D2F8083729
:104560000B4043F00203C2F80837D2F80C370B4077
:1045700043F00203C2F80C37002164200EF004F966
:10458000FAE700BFAFF30080182D4454FB21094027
:104590005E690020E052002000CA9A3B286B6E4EF4
:1045A000B85200200000304000409F40008066402C
:1045B000F8520020EC52002000030050F0F8FCFFFD
:1045C000A85200200000000000B589B09FED0E7BCE
:1045D00006ABCDE9063302AA8023CDE9022200937F
:1045E0000B4A02AB8DED047B09F084FB002805DB50
:1045F0004FF4FA72002302A80DF0F0FB09B05DF849
:1046000004FB00BFAFF300800000000001000000C9
:104610007DDE00000000000070B59FED1B7B1C4C90
:104620001C4B1D49C4F808330025C4F848331B4A05
:10463000C4F808554FF4803381ED027B0226C4F89C
:1046400004334FF4003384B0C4F804630121C2F88A
:10465000803111202A4607F08DFC112007F05AFC0A
:104660000F4A10490123A36028462360CDE9015574
:1046700013600D4A009100230AF0AAF8304609F0B1
:10468000F9FC284604B070BDFFFFFFFFFFFFFFFFEE
:104690000010014003000F00F80B002000E100E0D3
:1046A000206000207DE70000E0FF7F0000000000A8
:1046B000434BD3F80423900702D5D3F804212AB939
:1046C0003F4BD3F80423D1030ED470473D4A002159
:1046D000C3F80411D3F80431136801331360384B65
:1046E000D3F80423D103F0D5F0B5374ABFF35B8F7D
:1046F00083B052E8001F21F0010042E80004002CC2
:10470000F7D1BFF35B8FCA0704D4D3F840310BB99C
:1047100003B0F0BD2A4A2B4B0021C2F84011D2F859
:1047200040111B68190A1B06BFF35F8FD2F80425DE
:10473000D31841F10001B2F5801F0AD2234AD2E911
:104740000067B34271EB070203D213F1807341F1AA
:1047500000014FF02000EFF3118280F31288BFF3C5
:104760006F8F1B4CD4E90267B342B9411CD39FED54
:10477000127B134B2168656884ED027B00204FF4A7
:10478000803C2060C3F848C3C3F84001D3F84031EF
:1047900082F31188BFF36F8F0029B9D0009532469C
:1047A0003B46884703B0F0BD82F31188BFF36F8F9B
:1047B00003B0F0BDAFF30080FFFFFFFFFFFFFFFF7F
:1047C00000100140246000201C600020100C00201C
:1047D000F80B00200000000070B5D51D84B00A461B
:1047E000403282660026089A866025F00705C56675
:1047F000C67306670092099A01920A9A02920B9A6E
:1048000082739FED0D7B0C9A0273403500F15802C4
:10481000C0E916220D440422427380ED067B2A462D
:10482000044607F071FC064B66659B6803B15B6F3D
:104830006367284604B070BD00000000000000005F
:104840003C67002000000000F0B585B001F1400594
:10485000073285660A9E002522F00702C26685603F
:10486000C573056700960B9E01960C9E02960D9EE1
:1048700086739FED1B7B0E9E067300F15806C0E900
:10488000166640320426467380ED067B0A440446D1
:10489000DDE9107607F038FC134B65659B6803B1C2
:1048A0005B6F6367B6F1FF3F08BFB7F1FF3F02D10F
:1048B000204605B0F0BD56EA070305D120460DF0AD
:1048C00007FD204605B0F0BD04F1180007493A463F
:1048D00033460EF093F8204605B0F0BDAFF30080EC
:1048E00000000000000000003C670020C14B0000F9
:1048F0002DE9F04FDFF8E4A0374F2DED028BBA45DC
:1049000087B041D29FED328BDFF8D8905546002614
:104910004FF00408D5E90041D5ED087AAA682B6963
:10492000D5F814C00493D5E906EB17EE900A0732C8
:10493000EB6884F80EB022F0070204F1580BC4E9CA
:1049400016BB2073E2660498A66001F1400B40326A
:1049500084ED068B84F80D80E6732667C4F868B092
:104960000A440090CDE901CE2046CDED057A07F04E
:10497000CBFBD9F80830666503B15B6F63672B68C2
:104980005D652C35BD42C5D30DF0E2FDBA4518D2A8
:10499000124C134E05E028460DF09AFC2C34BC4214
:1049A0000FD2626A531CF9D02568002A4FEAE273DD
:1049B000314605F11800EEDD2C340EF01FF8BC4234
:1049C000EFD307B0BDEC028BBDE8F04F0DF0D4BDC6
:1049D0000000000000000000C874010044740100E1
:1049E000C14B00003C6700202DE9F04F2DED028BFC
:1049F0009FED4F8B87B000F1D0034F4F05930546D5
:104A000000F1D8094FF000084FF02003EFF31186B2
:104A100083F31288BFF36F8FD5F8C840002C5FD0A6
:104A2000D5F8CC202368C5F8C830944208BFC5F833
:104A3000CC30D5F8E03043F00203C5F8E030E3684D
:104A4000626823F0040343F00103E36086F31188F6
:104A5000BFF36F8F204690474FF02003EFF3118A8A
:104A600083F31288BFF36F8FE3689A0723F0010185
:104A70000FD4E160D5F8E03023F00203C5F8E03050
:104A80008AF31188BFF36F8FDB05BDD40DF0CCFD29
:104A9000BAE7386823F00303E3600028EAD04368EC
:104AA00006689C424FF0000B014608D0002EE1D072
:104AB00030468B46436836689C420146F6D1016811
:104AC000BBF1000F2DD0CBF800107B68984208BFD7
:104AD000C7F804B040F8088B0DF056F95946E5E7E1
:104AE000D5F8E03023F004025907C5F8E02009D4D6
:104AF0008DED008B059ACDF8088031460F480DF0FA
:104B000035FF81E70022012148460DF0F9FE00281B
:104B1000EED00022012148460DF0F2FE0028F1D12E
:104B2000E6E77B6839609842D4D17960D2E700BF6C
:104B3000FFFFFFFFFFFFFFFF900E002064670020D4
:104B400030B5044689B00020C4F8C800C4F8CC00D1
:104B50000C9D04F1D000C4E9340004F1D800C4E98C
:104B600036000DB32879002840F2011008BF01205B
:104B70009FED0F7BC4F8E0000020CDE90100039316
:104B800004908DED067B0C4B00942046FFF75CFEF5
:104B900025B1296811B120460CF060FF204609B00C
:104BA000BDE830400CF05EBF0120E1E7AFF30080CC
:104BB000FFFFFFFFFFFFFFFFE949000000000000CB
:104BC00010B54FF02003EFF3118483F31288BFF385
:104BD0006F8F10F80B3C13F0280217D150F8101CFF
:104BE00069B150E906319FED0C7B0B60596010F8FC
:104BF0000B3C40F8102C00ED067B03F0FD0323F086
:104C0000140300F80B3C18380DF0A0FA84F3118857
:104C1000BFF36F8F10BD00BF000000000000000058
:104C20004FF02003EFF3118283F31288BFF36F8FED
:104C300083686BB1D0E900319FED097B0B6059604F
:104C4000437B80ED007B23F00203002143738160EE
:104C500082F31188BFF36F8F704700BFAFF30080FE
:104C6000000000000000000003464FF02001EFF3B9
:104C7000118281F31288BFF36F8F0068834213D0D3
:104C800068B1D0E900319FED0C7B0B605960437B2C
:104C900080ED007B23F0020300214373816082F3E7
:104CA0001188BFF36F8F7047002082F31188BFF324
:104CB0006F8F7047AFF3008000000000000000001D
:104CC0004FF02003EFF3118283F31288BFF36F8F4D
:104CD00083686BB1D0E900319FED097B0B605960AF
:104CE000437B80ED007B23F002030021437381604E
:104CF00082F31188BFF36F8F18300DF015BF00BF1E
:104D000000000000000000002DE9F04F9DB01F469C
:104D1000002318939A4B0F921D68824628460C4632
:104D2000FDF7F9F94FF0000883464FF000092246DD
:104D3000179213782B2B3BD02CD80D2B26D8082B71
:104D400026D8002B2FD000230D93179E3378302BBD
:104D500074D1737803F0DF03582B65D10D9B019359
:104D600018AB0093874A029719AB17A950460FF06A
:104D70000DFF10F00705044635D0062D1AD10F9B04
:104D80000BB101361E6042464B4637E0202BDAD18C
:104D90000132CDE72D2BD6D101230D93531C179350
:104DA0005378002BD1D10F9B002BECD01C60EAE78D
:104DB0000023F2E7189A3AB135211AA811F0A9FF99
:104DC0001899504610F062F9013D199A042D06D841
:104DD000DFE805F0190322251900DDE91A8921070A
:104DE00001D549F000490F9B13B10F9A179B13602F
:104DF0000D9B002BC7D0424609F1004343EC102B1A
:104E00001DB0BDE8F08FDDE91A8302F2334223F4CE
:104E1000801343EA0259E2E7DFF86C91DFE76FF0B5
:104E200000494FF0FF38DAE7179B5A1C17925B785E
:104E3000302BF9D0002BD6D0012300E0002300272F
:104E4000CDE905770493179B0A930A2217980678F1
:104E5000A6F13003D9B2092924D95A46294612F0BD
:104E600005F800282DD00020059D324683460346D4
:104E7000652A01D0452A13D11DB9049A024392D064
:104E80000025179C621C179262782B2A6FD02D2A5E
:104E900073D04FF0000CA2F1300109297AD9179490
:104EA000002699E005990829DDBF069902FB013328
:104EB000069302FB0737059B0130013305931790DA
:104EC000C4E7179B03EB0B02179213F80B20059B0B
:104ED000ABB383461D46A2F13003092B12D901233F
:104EE000C6E7179B5A1C17925A780130302AF8D01F
:104EF000A2F13103082B00F2EF84179B0A9383463B
:104F000000200546303A00F1010312D09B4400EB2B
:104F1000050C2B460A21634513D12B18082B05F1EC
:104F20000105054419DC06990A2303FB01230693B6
:104F30000023179A511C179152781846CBE7059811
:104F4000D4E7082B03F1010303DC069E4E430696CB
:104F5000E1E7102BD8BF4F43DDE70F2BDCBF0A235F
:104F600003FB0727E4E74FF0000B012385E74FF031
:104F7000000CA21C1792A2788DE74FF0010CF8E705
:104F80006CC8030054C803000000F07F179A511C3E
:104F900017915278302AF9D0A2F1310108293FF651
:104FA0007FAF303A0792179A0C92179A561C1796B1
:104FB0005278A2F1300EBEF1090F38D90C99761A49
:104FC000082E44F61F6603DC07998E42A8BF0E46E2
:104FD000BCF1000F00D07642002D4FD10499084358
:104FE0007FF401AF002B7FF4DEAE692A29D026DCE6
:104FF000492A26D04E2A7FF4D6AE9B4917A811F035
:105000002BFD00283FF4CFAE179B1B78282B2FD108
:1050100096491AAA17A811F033FD052828D11B9B21
:10502000DDF8688043F0FF4949F4E009DBE6079EBC
:105030000A2101FB0621A1F130020792B5E76E2A91
:10504000D9E78B4917A811F007FD00283FF4ABAE54
:10505000179B8849013B17A8179311F0FDFC10B965
:10506000179B01331793DFF81C924FF00008BAE644
:10507000814801F079FA59EC108BB4E6A6EB0B03EA
:105080000C93059B0698002B08BF2B46102D05930B
:105090002C46A8BF1024FCF7C5F9092D8046894687
:1050A00013DC0C9B002B3FF49EAE0C9B78DD162B83
:1050B00045DC724901EBC301D1E9000142464B4690
:1050C000FCF72AFA804689468DE66C4B03EBC40355
:1050D00053E91223FCF720FA804638468946FCF74C
:1050E000A1F902460B4640464946FCF75FF80F2DF2
:1050F00080468946D5DD0C9B2C1B1C44002C25DCEE
:1051000000F0A280644214F00F020AD05B4B03EB64
:10511000C20340464946D3E90023FCF727FB8046FB
:105120008946241100F090801F2C40F3B180222387
:105130004FF000084FF00009CAF8003053E60C9A0F
:10514000C5F12503934219DA2C1B144414F00F0304
:105150000AD04A4901EBC30142464B46D1E900015E
:10516000FCF7DAF98046894634F00F046CD0B4F5C8
:105170009A7F41DD2223CAF8003074E73F4CC5F125
:105180000F0504EBC50142464B46D1E90001FCF78F
:10519000C3F90C9B5D1B04EBC504D4E900238FE726
:1051A0001633A8DB354BABEB060203EBC203D3E9A6
:1051B000002340464946FCF7D9FA83E700230693CB
:1051C0002223DFF8C090CAF800304FF00008189989
:1051D00050460FF05BFF069950460FF057FF0599B8
:1051E00050460FF053FF109950460FF04FFF0799AC
:1051F00050460FF04BFFF6E50023214F0493241196
:1052000040464946012C22DC0BB180468946049B6E
:105210001B49A9F1547901EBC30142464B46D1E940
:105220000001FCF779F9174B0A460B4016498B42EF
:1052300080469FD8A1F580118B4286BFDFF84C9045
:105240004FF0FF3802F15479002304934BE0E2075A
:1052500004D5D7E90023FCF75FF90123049A013252
:10526000049264100837CDE77ACA030040C80300EF
:1052700072CA0300A9CA03004ECC0300A87501003E
:10528000807501000000F07F0000A07CFFFFEF7F31
:1052900014F0100318BF6A23AA4F049340464946EE
:1052A0000023E20704D5D7E90023FCF735F90123F1
:1052B000641007F10807F4D10BB180468946049BBE
:1052C00043B1C9F30A52C2F16B03002B49464EDCCD
:1052D0006A2304930022002340464946FCF784FBDE
:1052E00000287FF424AF069B0093059A0A992B4669
:1052F00050460FF033FF109000283FF43BAF0C9B5B
:10530000ABEB060B002BB4BF5B46002311930C9B49
:1053100023EAE3731393002307930593109B5046EE
:1053200059680FF073FE069000283FF449AF109BB8
:105330001A69023203F10C0192000C3011F0FCF8F2
:1053400049EC108B1AAA19A95046CDE90A8910F028
:10535000D9F9189000283FF433AF012150460FF0DF
:1053600047FF05900346D0B90023059328E71F2B7C
:105370000EDD342BDEBF4FF0FF33C2F14B02934002
:105380004FF00008CCBF4FF05C7903EA01099FE7BA
:105390004FF0FF3202FA03F303EA080898E7199C7A
:1053A0001A9A002CABBF119B139B139E119FACBF8D
:1053B000E7181E1B049BE41A1444634B013C9C42F7
:1053C000C2F1360280F2B2801B1B1F2BC2BFC4F198
:1053D0007F4404F57F0404F57B444FF00105C8BF0A
:1053E000E234A2EB0302DABF9D40002405FA04F484
:1053F00007EB020B049B5F4516441E443B46A8BFC7
:105400005B46B342A8BF3346002BC2BFABEB030BD6
:10541000F61AFF1A119B002B16DD05991A46504605
:105420000FF0A6FF059000289ED00146189A50461E
:105430000FF0F4FE0E9000283FF4C2AE18995046CB
:105440000FF024FE0E9B1893BBF1000F71DC0C9B38
:10545000002B08DD139A069950460FF089FF06903D
:1054600000283FF4ABAE002E08DD069932465046C8
:105470000FF0D8FF069000283FF4A0AE002F08DD03
:1054800005993A4650460FF0CDFF059000283FF4AD
:1054900097AE069A1899504610F030F807900028F9
:1054A0003FF48EAEC3680E9300230599C36011F0DC
:1054B000E3FB00284ADA0E9B53EA080340F0BB8066
:1054C000C9F31303002B40F0B68029F000431B0DF5
:1054D0001B05B3F1D66F40F2AE80079B5B6923B921
:1054E000079B1B69012B40F3A680079901225046B8
:1054F0000FF098FF0599079011F0BEFB002840F3CC
:105500009A8029F00043049A1B0D1B05002A78D0CD
:10551000B3F1D66F6CD8B3F15C7F45D84FF000087B
:105520004FF000092223CAF8003050E6002401257C
:105530005EE718995A4650460FF074FF18900028FD
:1055400085D13DE65875010002FCFFFFCB4640F0D7
:10555000A3800E9AC9F31303002A40D09C4A9342B9
:1055600058D1049B42467BB9B8F1FF3F40F0898097
:10557000984B99453FF424AE974BDDF8108009EA2B
:10558000030303F5801922E6934B09EA0303B3F101
:10559000D46F16D918F101011BD18E4A91453FF401
:1055A0000FAE03F5801980468C4B404649460022D9
:1055B000FBF7B2FF0B460343804689467FF407AEF4
:1055C000B0E71E0DC6F16B064FF0FF31B1408845C4
:1055D000E7D0002C5ED014EA0B0FE5D01EE0002BC4
:1055E0004AD1B8F1000F8CD064B314EA0B0F2BE052
:1055F000A3F580136FEA13596FEA09594FF0FF388A
:10560000D2E7A3F580136FEA13596FEA09594FF0F7
:10561000FF38DCE59CB114EA090F0CD0404649463E
:10562000049A11F0CEF8DDE90A0153EC102BFBF7D8
:10563000BDFD80468946049B002BB5D1C7E515EA20
:10564000080FEAE718EA050FF5D0049A40464946E4
:1056500011F0B7F8DDE90A0153EC102BFBF7A4FDBC
:105660000022002304460D46FCF7BEF900287FF413
:1056700055AFA046A946DEE7002CB6D115EA080FC3
:10568000E2E724B114EA090F3FF4A1ADC6E718EA36
:10569000050FF9E72A42A0E70599079811F007FBE3
:1056A00055EC104B00224FF0804320462946FCF772
:1056B000AFF900286DD00E9B002B78D1B8F1000F08
:1056C00056D1C9F31303002B59D1454B0022204674
:1056D0002946FCF793F9002858D120462946414B2A
:1056E0000022FBF719FF04460D4605F1004308941C
:1056F0000993394B0BEA03031293129A3A4B9A42DD
:10570000DDE9086740F0A980ABF1547949EC108BD2
:105710000FF088FFDDE9082351EC100BFBF7FCFECE
:1057200042464B46FBF742FD0B462B492F4A194098
:10573000914280465CD90B9A264B9A4203D10A9B30
:1057400001333FF43DADDFF88C904FF0FF381899EE
:1057500050460FF09BFC069950460FF097FC0599B8
:1057600050460FF093FC079950460FF08FFCD5E59B
:10577000B8F1010F03D1B9F1000F3FF4CFAE9FEDA7
:10578000107B174D8DED087B0024B2E7154D0024EA
:10579000ABE7144B204629460022FBF7BDFE0E9BCB
:1057A00004460D46002BA0D0CDE90845A1E79FEDAA
:1057B000067B8DED087B55EC174B9AE7AFF3008025
:1057C000000000000000F0BF000000000000F03FFB
:1057D000FFFF0F00FFFFEF7F0000F07F0000503958
:1057E0000000F03F0000E03F0000E07FFFFF9F7CF3
:1057F00003F15479049B4E46002BA8D129F00043B5
:10580000129A1B0D1B059A42A1D120462946FCF78E
:1058100011FBFBF753FE0B46024629462046FBF7D9
:10582000C3FCC9F313060E9B46EA08061E43044652
:105830000D464BD02EA3D3E90023FCF7DFF8002858
:105840007FF4C5AC2CA3D3E9002320462946FCF7FE
:10585000F3F800283FF47BAFB9E4049B13B3129B29
:10586000B3F1D46F1ED826A3D3E9002320462946DE
:10587000FCF7CEF890B129462046FCF7E7F801285E
:1058800038BF0120FBF7CEFD0E9B04460D46D3B971
:1058900001F1004314901593DDE91467129A07F1A2
:1058A000D6639F1A9DED0A0B0FF0BCFE304653ECF9
:1058B000102B3946FBF730FEDDE90A23FBF776FCB7
:1058C0008046894696E7CDE91445E5E70EA3D3E97E
:1058D0000023FCF793F8BCE7652A3FF444AB452A64
:1058E0003FF441AB0123FFF779BB00BFAFF300806A
:1058F0009535A094FFFFDF3F35E5AF350000E03F71
:105900000000C0FFFFFFDF419535A094FFFFCF3FB0
:105910002DE9F04F476A97B08DED000B55EC104B19
:10592000209E089183460C9212937FB910200EF0AE
:1059300051FA0246CBF8240020B9A74BEA21A74828
:1059400010F034F8C0E901770760C760DBF8243055
:10595000196859B15A684A60012393408B605846D0
:105960000FF094FBDBF8243000221A602B1EB9BF25
:1059700023F00043019300233360019F984BBCBF89
:1059800001223260BB4319D1129A42F20F731360A5
:10599000C7F31303234300F0DD85219B53B9914BDB
:1059A00021E0914B03930833219A1360039817B0B9
:1059B000BDE8F08F8B4B03930333F5E79DED007B40
:1059C000002251EC170B00238DED0A7BFCF70CF83D
:1059D000804650B1129A01231360219B13B1219A82
:1059E000824B1360824B0393E0E79DED0A0B14AAF0
:1059F00015A958460FF086FEC7F30A560290002EEE
:105A000078D00B9BCDF84C80C3F31303DDE90A017A
:105A100043F07F5343F44013A6F2FF3619460022A9
:105A2000744BFBF7C1FB66A3D3E90023FBF774FDBE
:105A300065A3D3E90023FBF7B9FB044630460D46C6
:105A4000FBF700FD62A3D3E90023FBF765FD0246E7
:105A50000B4620462946FBF7A9FB04460D46FCF7FA
:105A6000C1F900220746002320462946FBF7C6FF5E
:105A700040B13846FBF7E6FC22462B46FBF7B4FF65
:105A800000B9013F162F52D85B4B03EBC703D3E994
:105A90000023DDE90A01FBF7B1FF002849D0013FEF
:105AA00000231193149B9B1B5A1E45BFC3F1010396
:105AB000069300230023079254BF06930793002FF9
:105AC00039DB079B10973B44079300230993089BFE
:105AD000092B66D8052BC4BF043B0893089BA3F190
:105AE0000203CCBF00240124032B65D8DFE803F0B8
:105AF0002B383657DDE914631E4406F23243202B5F
:105B0000C1BFC3F140039F4006F2124324FA03F3DE
:105B1000D6BFC3F1200347EA030004FA03F0FBF702
:105B200081FC0122A1F1F873013E139276E7012373
:105B3000B7E71190B6E7069BDB1B06937B42099300
:105B400000231093C3E700230D930C9B002B57DC1D
:105B50000123049399461A460C920CE00123F3E7C3
:105B600000230D930C9BFB1803F1010904934B4692
:105B7000012BB8BF0123DBF824000021042202F12D
:105B800014059D4240D9416058460FF03FFA0390FA
:105B900000283CD1194B02464FF4D571CFE60123C2
:105BA000DFE70124002308930D944FF0FF330493A3
:105BB000994600221223CFE701230D93F5E700BF9A
:105BC00061436F63A787D23FB3C8608B288AC63F03
:105BD000FB799F501344D33FB3CA0300CACA0300E2
:105BE0000000F07FAFCA0300A6CA03007ECA03000C
:105BF0007DCA03000000F83FA875010026CB030012
:105C00000C9B04939946B6E701315200B7E7DBF8E5
:105C10002430039A1A60B9F10E0F6FD8002C6DD0A2
:105C2000002F36DDA14B07F00F0203EBC20393ED0B
:105C3000007BF8058DED0E7B4FEA271417D59C4BA2
:105C4000DDE90A01D3E90823FBF790FDCDE9000166
:105C500004F00F044FF00308954D5CB9DDE90E2305
:105C6000DDE90001FBF782FDCDE900012BE04FF0FB
:105C70000208F1E7E10709D5DDE90E01D5E90023C6
:105C8000FBF74AFCCDE90E0108F101086410083564
:105C9000E3E700F007817C42844B854D04F00F025E
:105CA00003EBC203D3E90023DDE90A01FBF734FC6F
:105CB000CDE90001241100234FF00208002C40F030
:105CC000E580002BD0D1119BDDE90045002B00F0D1
:105CD0004C81784B002220462946FBF78FFE002896
:105CE00000F04381B9F1000F00F03F81049B002BCD
:105CF00000F3E480DDE90A34CDE90034159B002B84
:105D000002DB0E2F40F342820D9A002A40F0678298
:105D1000099CDDF818800025B8F1000F0DD0079B15
:105D2000002B0ADD4345069AA8BF4346D21A0692C5
:105D3000079AA8EB0308D31A0793099B0BB30D9B93
:105D4000002B00F0A682002C00F0A18229462246FA
:105D500058460FF00DFB029A0146054658460FF0D3
:105D60005DFA0299064658460FF090F9099B1B1BF5
:105D7000099300F09182099A314658460FF0F8FADB
:105D80000290012158460FF033FA109B0446002B75
:105D900000F084821A46014658460FF0E9FA089B43
:105DA000012B044603DC009B002B00F07C820026C4
:105DB000236904EB8303186910F00FFF1096C0F1FC
:105DC0002000079B184410F01F0000F09182C0F1E2
:105DD0002003042B40F38182069BC0F11C00034486
:105DE0000693079B034480440793069B002B05DD25
:105DF00002991A4658460FF015FB0290079B002B9C
:105E000005DD21461A4658460FF00CFB0446119B4F
:105E1000002B00F076820298214610F02DFF00281A
:105E200080F26F82002302990A2258460FF050F93F
:105E30000D9B02907E1E002B00F05C820023294601
:105E40000A2258460FF044F9049B002B054603DC58
:105E5000089B022B00F35E82B8F1000F05DD294696
:105E6000424658460FF0DEFA0546109B002B00F024
:105E7000D082696858460FF0C9F80746002840F0FC
:105E80007F820D4B024640F2EA2158E5E20706D533
:105E9000D5E90023FBF740FB08F10108012364105A
:105EA00008350BE74FF002080DE700BFA8750100A9
:105EB000807501000000F03F26CB03002046AD4B6B
:105EC00000222946FBF728FBCDE90001049C7E1E39
:105ED00008F101084046FBF7B5FADDE90023FBF7BE
:105EE0001BFBA54B0022FBF761F9A1F15073CDE933
:105EF0000E010F93002C3BD1DDE900019F4B0022E6
:105F0000FBF752F902460B46CDE90023DDE90E23EB
:105F1000FBF792FD002840F05781DDE90E2101F1E9
:105F20000043DDE90001FBF769FD00283FF4E2AE24
:105F3000002425460C9BDDF80CA0DE434FF0000842
:105F4000214658460FF0A2F8002D00F0A980B8F1C4
:105F5000000F05D0A84503D0414658460FF096F8EB
:105F6000294658460FF092F89AE03E464C46B1E773
:105F7000834B03EBC40353E90201039B1C440D9BB9
:105F8000002B4AD002460B4600207E49FBF7EEFB71
:105F9000DDE90E23FBF708F9CDE90E01DDF80CA0D1
:105FA000DDE90001FBF71EFF0546FBF74BFA024651
:105FB0000B46DDE90001FBF7F7F83035CDE90001CC
:105FC00002460B460AF8015BDDE90E01FBF734FDE2
:105FD000002865D1DDE900236B490020FBF7E4F8D8
:105FE00002460B46DDE90E01FBF726FD002840F0D6
:105FF0000D81A24500F0EA80DDE90E015D4B002233
:10600000FBF78AFA5B4BCDE90E010022DDE90001C6
:10601000FBF782FACDE90001C2E7DDE90E23FBF7C9
:106020007BFACDE90E01DDF80CA0A046DDE9000108
:10603000FBF7D8FE0546FBF705FA02460B46DDE9FD
:106040000001FBF7B1F830350AF8015B02460B4658
:10605000A245CDE900234FF0000223D1494BDDE9F1
:106060000E01FBF7A3F802460B46DDE90001FBF742
:10607000E3FC002840F0CA80DDE90E2341490020FE
:10608000FBF792F802460B46DDE90001FBF7B6FC90
:1060900070B1C24608F1FF381AF8013C302BF8D035
:1060A000374655E0334BFBF737FACDE90001BDE742
:1060B000DDE90A34CDE90034159B002BFFF628AE4C
:1060C0000E2F3FF725AE2E4B03EBC70393ED007B5E
:1060D0000C9B002B8DED047B02DAB9F1000F64D02C
:1060E000DDE90045DDF80CA0DDE904232046294662
:1060F000FBF73CFBFBF776FE0646FBF7A3F9DDE971
:106100000423FBF709FA02460B462046294606F10E
:106110003004FBF749F80AF8014B039CAAEB04048E
:10612000A14502460B4640F08280FBF73FF8DDE9CF
:10613000042304460D46FBF77FFC002865D1DDE90A
:10614000042320462946FBF74FFC08B1F3075CD433
:10615000029958460EF09AFF00238AF80030129BED
:1061600001371F60219B002B3FF420ACC3F800A037
:106170001CE400BF0000244000001C40000014404C
:10618000A87501000000E03F0000F03FA24B03EBC8
:10619000C70393ED007B0C9B002B8DED047B9FDAF6
:1061A000B9F1000F9CDC7FF4C3AE9C4B0022DDE90B
:1061B0000401FBF7B1F9DDE90023FBF733FC0446EA
:1061C00000287FF4B5AE3E462546B4E0DDE90A344A
:1061D000CDE90034159B002B01DB0E2FD6DD089A8C
:1061E000012A36DC139A82B303F23343099CDDF8AB
:1061F0001880069A1A440692079A01211A445846B2
:1062000007920EF0F5FF054686E53E4653469A4650
:1062100013F8012D392A06D1039A9A42F7D103992E
:10622000302201360A701A7801321A7038E77C4B36
:106230000022FBF771F90022002304460D46FBF70C
:10624000D3FB00283FF450AF82E7149BC3F1360321
:10625000CCE7099B09F1FF34A34208DBB9F1000F39
:10626000A3EB04040EDBDDF818804B46C1E7099B65
:10627000109A0994E31A1A44DDF8188010924B46DC
:106280000024B6E7069BA3EB09080023B1E7029EB2
:1062900071E5099A029970E5029672E5089B012B57
:1062A00017DC009BABB9019BC3F313039BB9019BA4
:1062B00023F00046360D360536B1069B01330693B2
:1062C000079B013307930126109B002B7FF470ADD1
:1062D0001096012075E50026F6E73FF486AD069A94
:1062E0001C331A440692079A1A44984407927CE594
:1062F0000346F4E7049B002B2BDC089B022B09DCF4
:1063000027E0B9F1000F1DDC089B022B1ADDCDF848
:1063100010903E46049B002B7FF40CAE21460522D4
:1063200058460EF0D5FE01460446029810F0A4FC33
:1063300000287FF7FFADDDF80CA031230AF8013B00
:106340000136FBE50D9BCDF810903E46002B7FF407
:1063500083AD039F0298214610F07EFA00F13009C8
:1063600007F8019B039B049AFB1A9A4240F3CB80E7
:10637000029900230A2258460EF0AAFE0290E9E78D
:106380002A690232920005F10C010C3010F0D4F8A9
:106390000122394658460FF045F8039B03F1010AE4
:1063A000DDE9032313440793009B03F00103A84690
:1063B000099305460AF1FF3321460298049310F031
:1063C0004BFA4146069000F13009029810F054FC57
:1063D0002A462146074658460FF090F8C268014603
:1063E00002B358460EF052FE002F3ADA029901220B
:1063F00058460FF017F82146029010F03DFC002897
:1064000003DC29D119F0010F26D0B9F1390F1DD1C4
:1064100032E02846C1E700BFA87501000000144023
:10642000000024400A90029810F026FC0A990C9073
:1064300058460EF02BFE0C9A5ABB089B53B9099B89
:1064400043B9B9F1390F17D0002F05DD069B03F1D1
:10645000310901E0002F2ADADDF810A00AF8019BCB
:106460006EE5089B3B4304D1009B03F00103002B26
:10647000BCD0B9F1390F36D1049F392307F8013B5D
:10648000BA46013F1AF8013C392B5BD001333B700F
:1064900056E5002F06DB089B3B4306D1009B03F02B
:1064A000010313B9002AA1DCD6E7002AE1DC079B2F
:1064B0000AF8019C534557462FD0029900230A221F
:1064C00058460EF005FEA84502904FF000034FF02D
:1064D0000A02414658460BD10EF0FAFD80460546A9
:1064E0000AF1010A66E7DDF810A009F10109B5E734
:1064F0000EF0EEFD2946804600230A2258460EF093
:10650000E7FD0546ECE7049B002BC8BF1F46039B35
:10651000D8BF01271F444FF00008029901225846B6
:106520000EF080FF2146029010F0A6FB0028A7DCA9
:1065300002D119F0010FA3D1BA4617F8013D302B53
:10654000FAD0FDE4039BBB429AD1039A3123013672
:106550001370F5E4219B002B7FF423AA014BFFF776
:1065600042BA00BFA6CA03009FED010B704700BFEF
:10657000000000000000F87F037C03B9704770B58D
:10658000991E42180344527D1D7D00F1150682B00C
:106590000446304645EA022501F09EF8854201D0C6
:1065A00002B070BD394A3A49136801331360637D04
:1065B0000022022B0A60F3D1237C0E2BF0D9354D3B
:1065C0009FED350A2B680122013301A930462B606B
:1065D000019201F0CFF801A9F0EE407A30469FED2C
:1065E0002E0AC5ED017A01F0D5F801A9F0EE407A46
:1065F00030469FED290AC5ED027A01F0CBF801A9DA
:10660000F0EE407A3046B2EE040AC5ED037A01F0AE
:10661000B1F801A9F0EE407A3046B2EE040AC5EDB9
:10662000047A01F0A7F8019B85ED050A0133019377
:10663000237C1B2BB4D901A930469FED170A01F02A
:10664000A9F801A9F0EE407A30469FED140AC5ED95
:10665000067A01F09FF801A9F0EE407A30469FEDEE
:106660000F0AC5ED077A01F095F8019BDFED0C6A82
:1066700085ED080A1C4494F9153007EE903AF8EEBF
:10668000E77A87EEA67A85ED097A89E77C0F002004
:10669000780F0020800F002000007A4400401C4644
:1066A0000000C84208B50378012B06D0022B03D1A5
:1066B000064800F079FE20B108BDBDE80840FDF7AE
:1066C0002BBBBDE8084002480BF072BC040F002051
:1066D000F40E0020C1170CF057B800BF08B50F49E1
:1066E0000F480BF025FC0F480F49104AC1600023EA
:1066F0004FF0010C42604FF4807108220374A0F83F
:1067000000C0037501818272FDF7DEF900B108BD9A
:10671000BDE80840032000F007BF00BF7965000016
:10672000F40E0020B0000020E8030100A566000080
:1067300010B50A2400F0AEFD28B9012000210CF0AC
:1067400023F8013CF6D110BD10B5134A034692E878
:10675000030084B002AC84E80300C3F3056005289D
:106760004FF0C7024FEA1321019298BF05301A0C6F
:106770008DF808308DF804108DF8052000F096FF94
:1067800001A800F0F3FE01A800F01AFF0121204645
:1067900000F040FF04B010BDF077010070B5104D5F
:1067A00000236B70EB708B1C0C4606462B7000F0C0
:1067B00093FF20233146224606462C44681D0FF0E5
:1067C000C9FE330A28466371A67100F06BFD00B95B
:1067D00070BD0146BDE87040024802F047B900BFF5
:1067E000CC0E0020FC7701002DE9F043224B05463A
:1067F00093E8030087B0C5F30566C523052E04ACF6
:1068000084E80300019398BF053600F065FE43203D
:1068100000F04CFF01A800F0A9FE01A800F0D0FE96
:106820002046012100F0F6FE5FFA85F9C5F307283E
:10683000C5F307470723052102A88DF809908DF8B5
:106840000A808DF80B708DF80C600A248DF80830E2
:10685000FFF7A4FF00F01EFD28B9012000210BF076
:1068600093FF013CF6D12846FFF76EFF00F0ECFDE8
:1068700007B0BDE8F08300BFF07701004FF0804221
:10688000012310B51360D2F80031002BFBD0002497
:106890000348C2F8004102F0E9F8204610BD00BFED
:1068A0000C7801002DE9F843DFF84491474EDFF8FA
:1068B0003C81474F41F288330024C9F80030254617
:1068C00033E0D8F81035990739D54FF0A043D3F805
:1068D00010359A0402D40CB9002333604FF0A04362
:1068E0003C49D3F810351B034FF0A04348BFD8F8FC
:1068F0001055D3F81035D9F8002048BF6FEA550578
:106900006FEA5333A2F11402C9F800204CBF05F01E
:106910000105012503F00104C1F8007614200021CF
:106920000BF032FF3368042B4ADDD9F80030002B1E
:106930000CDD4FF0A043D3F810351803C1D4002D5F
:10694000C3D14FF0A043D3F81035C5E7224B214DFA
:106950001F4E01221A700A24C5F800666420002127
:106960000BF012FF013CF7D1FDF772F80123194635
:106970001A4A1B48C5F8006604F0B4FB4FF0A04368
:106980004FF40012C3F80825D3F84C2715481649D0
:10699000164C02400A43C3F84C27D4F8042702409F
:1069A0000A43C4F80427D3F834274FF08044024048
:1069B0000A430121C3F83427C4F80015BDE8F88361
:1069C0004FF0FF33C9F80030BDE8F883780F00209E
:1069D0003546526E000001405E6900202C0F0020F9
:1069E000300F0020F0F8FCFF0C0003000003005003
:1069F000C800002070B5354C354E364D4FF4FA6363
:106A000023600EE02368143B2360C6F80056002183
:106A100014200BF0B9FE4FF0A043D3F810359904C1
:106A20004FD42368002BEDDC2B4B294E294D01223E
:106A30001A700A24C6F80056642000210BF0A4FE48
:106A4000013CF7D14FF0A044D4F810359A040BD490
:106A50001F4E204DC6F80056142000210BF094FE66
:106A6000D4F810359B04F5D5FCF7F2FF1849194806
:106A7000C1F8000601231946184A1948194C04F0B8
:106A800031FB4FF0A0434FF40012C3F80825D3F8B0
:106A90004C271548154902400A43C3F84C27D4F83F
:106AA000042702400A43C4F80427D3F834274FF0E0
:106AB000804402400A430121C3F83427C4F800157A
:106AC00070BD4FF0FF33236070BD00BFC8000020D1
:106AD000000001403546526E5E6900202C0F0020F8
